{
  "address": "0xfC83F996B1E661a1933743Fb0819014e90F0c19c",
  "abi": [
    {
      "anonymous": false,
      "inputs": [
        {
          "indexed": true,
          "internalType": "address",
          "name": "owner",
          "type": "address"
        },
        {
          "indexed": true,
          "internalType": "address",
          "name": "approved",
          "type": "address"
        },
        {
          "indexed": true,
          "internalType": "uint256",
          "name": "tokenId",
          "type": "uint256"
        }
      ],
      "name": "Approval",
      "type": "event"
    },
    {
      "anonymous": false,
      "inputs": [
        {
          "indexed": true,
          "internalType": "address",
          "name": "owner",
          "type": "address"
        },
        {
          "indexed": true,
          "internalType": "address",
          "name": "operator",
          "type": "address"
        },
        {
          "indexed": false,
          "internalType": "bool",
          "name": "approved",
          "type": "bool"
        }
      ],
      "name": "ApprovalForAll",
      "type": "event"
    },
    {
      "anonymous": false,
      "inputs": [
        {
          "indexed": true,
          "internalType": "uint256",
          "name": "dropId",
          "type": "uint256"
        },
        {
          "indexed": true,
          "internalType": "string",
          "name": "name",
          "type": "string"
        }
      ],
      "name": "CreateDrop",
      "type": "event"
    },
    {
      "anonymous": false,
      "inputs": [
        {
          "indexed": true,
          "internalType": "address",
          "name": "previousOwner",
          "type": "address"
        },
        {
          "indexed": true,
          "internalType": "address",
          "name": "newOwner",
          "type": "address"
        }
      ],
      "name": "OwnershipTransferred",
      "type": "event"
    },
    {
      "anonymous": false,
      "inputs": [
        {
          "indexed": false,
          "internalType": "address",
          "name": "account",
          "type": "address"
        }
      ],
      "name": "Paused",
      "type": "event"
    },
    {
      "anonymous": false,
      "inputs": [
        {
          "indexed": true,
          "internalType": "bytes32",
          "name": "role",
          "type": "bytes32"
        },
        {
          "indexed": true,
          "internalType": "bytes32",
          "name": "previousAdminRole",
          "type": "bytes32"
        },
        {
          "indexed": true,
          "internalType": "bytes32",
          "name": "newAdminRole",
          "type": "bytes32"
        }
      ],
      "name": "RoleAdminChanged",
      "type": "event"
    },
    {
      "anonymous": false,
      "inputs": [
        {
          "indexed": true,
          "internalType": "bytes32",
          "name": "role",
          "type": "bytes32"
        },
        {
          "indexed": true,
          "internalType": "address",
          "name": "account",
          "type": "address"
        },
        {
          "indexed": true,
          "internalType": "address",
          "name": "sender",
          "type": "address"
        }
      ],
      "name": "RoleGranted",
      "type": "event"
    },
    {
      "anonymous": false,
      "inputs": [
        {
          "indexed": true,
          "internalType": "bytes32",
          "name": "role",
          "type": "bytes32"
        },
        {
          "indexed": true,
          "internalType": "address",
          "name": "account",
          "type": "address"
        },
        {
          "indexed": true,
          "internalType": "address",
          "name": "sender",
          "type": "address"
        }
      ],
      "name": "RoleRevoked",
      "type": "event"
    },
    {
      "anonymous": false,
      "inputs": [
        {
          "indexed": true,
          "internalType": "address",
          "name": "from",
          "type": "address"
        },
        {
          "indexed": true,
          "internalType": "address",
          "name": "to",
          "type": "address"
        },
        {
          "indexed": true,
          "internalType": "uint256",
          "name": "tokenId",
          "type": "uint256"
        }
      ],
      "name": "Transfer",
      "type": "event"
    },
    {
      "anonymous": false,
      "inputs": [
        {
          "indexed": false,
          "internalType": "address",
          "name": "account",
          "type": "address"
        }
      ],
      "name": "Unpaused",
      "type": "event"
    },
    {
      "inputs": [],
      "name": "DEFAULT_ADMIN_ROLE",
      "outputs": [
        {
          "internalType": "bytes32",
          "name": "",
          "type": "bytes32"
        }
      ],
      "stateMutability": "view",
      "type": "function"
    },
    {
      "inputs": [],
      "name": "MINTER_ROLE",
      "outputs": [
        {
          "internalType": "bytes32",
          "name": "",
          "type": "bytes32"
        }
      ],
      "stateMutability": "view",
      "type": "function"
    },
    {
      "inputs": [],
      "name": "PAUSABLE_ROLE",
      "outputs": [
        {
          "internalType": "bytes32",
          "name": "",
          "type": "bytes32"
        }
      ],
      "stateMutability": "view",
      "type": "function"
    },
    {
      "inputs": [
        {
          "internalType": "address",
          "name": "to",
          "type": "address"
        },
        {
          "internalType": "uint256",
          "name": "tokenId",
          "type": "uint256"
        }
      ],
      "name": "approve",
      "outputs": [],
      "stateMutability": "nonpayable",
      "type": "function"
    },
    {
      "inputs": [],
      "name": "balance",
      "outputs": [
        {
          "internalType": "uint256",
          "name": "",
          "type": "uint256"
        }
      ],
      "stateMutability": "view",
      "type": "function"
    },
    {
      "inputs": [
        {
          "internalType": "address",
          "name": "owner",
          "type": "address"
        }
      ],
      "name": "balanceOf",
      "outputs": [
        {
          "internalType": "uint256",
          "name": "",
          "type": "uint256"
        }
      ],
      "stateMutability": "view",
      "type": "function"
    },
    {
      "inputs": [
        {
          "internalType": "uint256",
          "name": "tokenId",
          "type": "uint256"
        }
      ],
      "name": "burn",
      "outputs": [],
      "stateMutability": "nonpayable",
      "type": "function"
    },
    {
      "inputs": [
        {
          "internalType": "uint256",
          "name": "_maxSupply",
          "type": "uint256"
        },
        {
          "internalType": "string",
          "name": "_name",
          "type": "string"
        },
        {
          "internalType": "string",
          "name": "_cid",
          "type": "string"
        },
        {
          "internalType": "string",
          "name": "_prefix",
          "type": "string"
        },
        {
          "internalType": "string",
          "name": "_sufix",
          "type": "string"
        },
        {
          "internalType": "string",
          "name": "_hiddenURI",
          "type": "string"
        },
        {
          "internalType": "uint256",
          "name": "_maxPerTx",
          "type": "uint256"
        }
      ],
      "name": "createDrop",
      "outputs": [
        {
          "internalType": "uint256",
          "name": "",
          "type": "uint256"
        }
      ],
      "stateMutability": "nonpayable",
      "type": "function"
    },
    {
      "inputs": [
        {
          "internalType": "uint256",
          "name": "_dropId",
          "type": "uint256"
        }
      ],
      "name": "defineDrop",
      "outputs": [
        {
          "internalType": "uint256",
          "name": "",
          "type": "uint256"
        }
      ],
      "stateMutability": "payable",
      "type": "function"
    },
    {
      "inputs": [
        {
          "internalType": "uint256",
          "name": "",
          "type": "uint256"
        }
      ],
      "name": "drops",
      "outputs": [
        {
          "internalType": "string",
          "name": "name",
          "type": "string"
        },
        {
          "internalType": "uint256",
          "name": "hash",
          "type": "uint256"
        },
        {
          "internalType": "address",
          "name": "owner",
          "type": "address"
        },
        {
          "internalType": "uint256",
          "name": "nftId",
          "type": "uint256"
        },
        {
          "internalType": "uint256",
          "name": "maxSupply",
          "type": "uint256"
        },
        {
          "internalType": "string",
          "name": "cid",
          "type": "string"
        },
        {
          "internalType": "string",
          "name": "prefix",
          "type": "string"
        },
        {
          "internalType": "string",
          "name": "sufix",
          "type": "string"
        },
        {
          "internalType": "bool",
          "name": "revealed",
          "type": "bool"
        },
        {
          "internalType": "string",
          "name": "hiddenURI",
          "type": "string"
        },
        {
          "internalType": "uint256",
          "name": "totalNft",
          "type": "uint256"
        },
        {
          "internalType": "uint256",
          "name": "maxMintPerTx",
          "type": "uint256"
        }
      ],
      "stateMutability": "view",
      "type": "function"
    },
    {
      "inputs": [
        {
          "internalType": "uint256",
          "name": "",
          "type": "uint256"
        }
      ],
      "name": "dropsBalance",
      "outputs": [
        {
          "internalType": "uint256",
          "name": "",
          "type": "uint256"
        }
      ],
      "stateMutability": "view",
      "type": "function"
    },
    {
      "inputs": [
        {
          "internalType": "uint256",
          "name": "tokenId",
          "type": "uint256"
        }
      ],
      "name": "getApproved",
      "outputs": [
        {
          "internalType": "address",
          "name": "",
          "type": "address"
        }
      ],
      "stateMutability": "view",
      "type": "function"
    },
    {
      "inputs": [
        {
          "internalType": "bytes32",
          "name": "role",
          "type": "bytes32"
        }
      ],
      "name": "getRoleAdmin",
      "outputs": [
        {
          "internalType": "bytes32",
          "name": "",
          "type": "bytes32"
        }
      ],
      "stateMutability": "view",
      "type": "function"
    },
    {
      "inputs": [
        {
          "internalType": "bytes32",
          "name": "role",
          "type": "bytes32"
        },
        {
          "internalType": "address",
          "name": "account",
          "type": "address"
        }
      ],
      "name": "grantRole",
      "outputs": [],
      "stateMutability": "nonpayable",
      "type": "function"
    },
    {
      "inputs": [
        {
          "internalType": "bytes32",
          "name": "role",
          "type": "bytes32"
        },
        {
          "internalType": "address",
          "name": "account",
          "type": "address"
        }
      ],
      "name": "hasRole",
      "outputs": [
        {
          "internalType": "bool",
          "name": "",
          "type": "bool"
        }
      ],
      "stateMutability": "view",
      "type": "function"
    },
    {
      "inputs": [
        {
          "internalType": "address",
          "name": "owner",
          "type": "address"
        },
        {
          "internalType": "address",
          "name": "operator",
          "type": "address"
        }
      ],
      "name": "isApprovedForAll",
      "outputs": [
        {
          "internalType": "bool",
          "name": "",
          "type": "bool"
        }
      ],
      "stateMutability": "view",
      "type": "function"
    },
    {
      "inputs": [
        {
          "internalType": "uint256",
          "name": "_dropId",
          "type": "uint256"
        },
        {
          "internalType": "uint256",
          "name": "_mintAmount",
          "type": "uint256"
        }
      ],
      "name": "mint",
      "outputs": [],
      "stateMutability": "payable",
      "type": "function"
    },
    {
      "inputs": [],
      "name": "name",
      "outputs": [
        {
          "internalType": "string",
          "name": "",
          "type": "string"
        }
      ],
      "stateMutability": "view",
      "type": "function"
    },
    {
      "inputs": [],
      "name": "owner",
      "outputs": [
        {
          "internalType": "address",
          "name": "",
          "type": "address"
        }
      ],
      "stateMutability": "view",
      "type": "function"
    },
    {
      "inputs": [
        {
          "internalType": "uint256",
          "name": "tokenId",
          "type": "uint256"
        }
      ],
      "name": "ownerOf",
      "outputs": [
        {
          "internalType": "address",
          "name": "",
          "type": "address"
        }
      ],
      "stateMutability": "view",
      "type": "function"
    },
    {
      "inputs": [],
      "name": "pause",
      "outputs": [],
      "stateMutability": "nonpayable",
      "type": "function"
    },
    {
      "inputs": [],
      "name": "paused",
      "outputs": [
        {
          "internalType": "bool",
          "name": "",
          "type": "bool"
        }
      ],
      "stateMutability": "view",
      "type": "function"
    },
    {
      "inputs": [],
      "name": "renounceOwnership",
      "outputs": [],
      "stateMutability": "nonpayable",
      "type": "function"
    },
    {
      "inputs": [
        {
          "internalType": "bytes32",
          "name": "role",
          "type": "bytes32"
        },
        {
          "internalType": "address",
          "name": "account",
          "type": "address"
        }
      ],
      "name": "renounceRole",
      "outputs": [],
      "stateMutability": "nonpayable",
      "type": "function"
    },
    {
      "inputs": [
        {
          "internalType": "bytes32",
          "name": "role",
          "type": "bytes32"
        },
        {
          "internalType": "address",
          "name": "account",
          "type": "address"
        }
      ],
      "name": "revokeRole",
      "outputs": [],
      "stateMutability": "nonpayable",
      "type": "function"
    },
    {
      "inputs": [
        {
          "internalType": "address",
          "name": "from",
          "type": "address"
        },
        {
          "internalType": "address",
          "name": "to",
          "type": "address"
        },
        {
          "internalType": "uint256",
          "name": "tokenId",
          "type": "uint256"
        }
      ],
      "name": "safeTransferFrom",
      "outputs": [],
      "stateMutability": "nonpayable",
      "type": "function"
    },
    {
      "inputs": [
        {
          "internalType": "address",
          "name": "from",
          "type": "address"
        },
        {
          "internalType": "address",
          "name": "to",
          "type": "address"
        },
        {
          "internalType": "uint256",
          "name": "tokenId",
          "type": "uint256"
        },
        {
          "internalType": "bytes",
          "name": "_data",
          "type": "bytes"
        }
      ],
      "name": "safeTransferFrom",
      "outputs": [],
      "stateMutability": "nonpayable",
      "type": "function"
    },
    {
      "inputs": [
        {
          "internalType": "address",
          "name": "operator",
          "type": "address"
        },
        {
          "internalType": "bool",
          "name": "approved",
          "type": "bool"
        }
      ],
      "name": "setApprovalForAll",
      "outputs": [],
      "stateMutability": "nonpayable",
      "type": "function"
    },
    {
      "inputs": [
        {
          "internalType": "bytes4",
          "name": "interfaceId",
          "type": "bytes4"
        }
      ],
      "name": "supportsInterface",
      "outputs": [
        {
          "internalType": "bool",
          "name": "",
          "type": "bool"
        }
      ],
      "stateMutability": "view",
      "type": "function"
    },
    {
      "inputs": [],
      "name": "symbol",
      "outputs": [
        {
          "internalType": "string",
          "name": "",
          "type": "string"
        }
      ],
      "stateMutability": "view",
      "type": "function"
    },
    {
      "inputs": [
        {
          "internalType": "uint256",
          "name": "_tokenId",
          "type": "uint256"
        },
        {
          "internalType": "uint256",
          "name": "_dropId",
          "type": "uint256"
        }
      ],
      "name": "tokenURI",
      "outputs": [
        {
          "internalType": "string",
          "name": "",
          "type": "string"
        }
      ],
      "stateMutability": "view",
      "type": "function"
    },
    {
      "inputs": [
        {
          "internalType": "uint256",
          "name": "tokenId",
          "type": "uint256"
        }
      ],
      "name": "tokenURI",
      "outputs": [
        {
          "internalType": "string",
          "name": "",
          "type": "string"
        }
      ],
      "stateMutability": "view",
      "type": "function"
    },
    {
      "inputs": [
        {
          "internalType": "address",
          "name": "from",
          "type": "address"
        },
        {
          "internalType": "address",
          "name": "to",
          "type": "address"
        },
        {
          "internalType": "uint256",
          "name": "tokenId",
          "type": "uint256"
        }
      ],
      "name": "transferFrom",
      "outputs": [],
      "stateMutability": "nonpayable",
      "type": "function"
    },
    {
      "inputs": [
        {
          "internalType": "address",
          "name": "newOwner",
          "type": "address"
        }
      ],
      "name": "transferOwnership",
      "outputs": [],
      "stateMutability": "nonpayable",
      "type": "function"
    },
    {
      "inputs": [],
      "name": "unpause",
      "outputs": [],
      "stateMutability": "nonpayable",
      "type": "function"
    },
    {
      "inputs": [
        {
          "internalType": "uint256",
          "name": "_dropId",
          "type": "uint256"
        }
      ],
      "name": "withdrawDrop",
      "outputs": [],
      "stateMutability": "nonpayable",
      "type": "function"
    },
    {
      "inputs": [
        {
          "internalType": "uint256",
          "name": "_dropId",
          "type": "uint256"
        }
      ],
      "name": "withdrawOwner",
      "outputs": [],
      "stateMutability": "nonpayable",
      "type": "function"
    }
  ],
  "transactionHash": "0x97d33c68f545c595f80847bec32b6e00f46aabfb3ea1a0a000811c979b3649b6",
  "args": [],
  "numDeployments": 1,
  "solcInputHash": "578dc04433f5afd3cbcdd3d323746394",
  "bytecode": "0x60806040523480156200001157600080fd5b506040805180820182526005815264526163736f60d81b60208083019182528351808501909452600384526252414360e81b9084015281519192916200005a91600091620001f9565b50805162000070906001906020840190620001f9565b50506006805460ff19169055506200008833620000f3565b6200009560003362000145565b620000c17f9f2df0fed2c77648de5860a4cc508cd0818c85b8b8a1ab4ceeef8d981c8956a63362000145565b620000ed7f09b6fca8f5f3ab2900d9586d1d15872611c1bd42b268b973ad886d4f2646b5603362000145565b620002dc565b600880546001600160a01b038381166001600160a01b0319831681179093556040519116919082907f8be0079c531659141344cd1fd0a4f28419497f9722a3daafe3b4186f6b6457e090600090a35050565b62000151828262000155565b5050565b60008281526007602090815260408083206001600160a01b038516845290915290205460ff16620001515760008281526007602090815260408083206001600160a01b03851684529091529020805460ff19166001179055620001b53390565b6001600160a01b0316816001600160a01b0316837f2f8788117e7eff1d82e926ec794901d17c78024a50270940304540a733656f0d60405160405180910390a45050565b82805462000207906200029f565b90600052602060002090601f0160209004810192826200022b576000855562000276565b82601f106200024657805160ff191683800117855562000276565b8280016001018555821562000276579182015b828111156200027657825182559160200191906001019062000259565b506200028492915062000288565b5090565b5b8082111562000284576000815560010162000289565b600181811c90821680620002b457607f821691505b60208210811415620002d657634e487b7160e01b600052602260045260246000fd5b50919050565b6132e180620002ec6000396000f3fe60806040526004361061021a5760003560e01c80636ef98b2111610123578063a22cb465116100ab578063c87b56dd1161006f578063c87b56dd14610642578063d539139314610662578063d547741f14610696578063e985e9c5146106b6578063f2fde38b146106ff57600080fd5b8063a22cb4651461059f578063b69ef8a8146105bf578063b88d4fde146105d5578063b8ef5a38146105f5578063c34bfa191461062257600080fd5b80638da5cb5b116100f25780638da5cb5b1461051757806391d148541461053557806392cb829d1461055557806395d89b4114610575578063a217fddf1461058a57600080fd5b80636ef98b21146104ad57806370a08231146104cd578063715018a6146104ed5780638456cb591461050257600080fd5b806336568abe116101a657806342966c681161017557806342966c681461040a5780635c975abb1461042a5780635eb39968146104425780636352211e1461047a57806366fc51fe1461049a57600080fd5b806336568abe1461039557806339d19eae146103b55780633f4ba83a146103d557806342842e0e146103ea57600080fd5b80630ffd778e116101ed5780630ffd778e146102d05780631b2ef1ca1461031257806323b872dd14610325578063248a9ca3146103455780632f2ff15d1461037557600080fd5b806301ffc9a71461021f57806306fdde0314610254578063081812fc14610276578063095ea7b3146102ae575b600080fd5b34801561022b57600080fd5b5061023f61023a366004612ba7565b61071f565b60405190151581526020015b60405180910390f35b34801561026057600080fd5b50610269610730565b60405161024b9190612f1b565b34801561028257600080fd5b50610296610291366004612b6b565b6107c2565b6040516001600160a01b03909116815260200161024b565b3480156102ba57600080fd5b506102ce6102c9366004612b41565b61085c565b005b3480156102dc57600080fd5b506103047f09b6fca8f5f3ab2900d9586d1d15872611c1bd42b268b973ad886d4f2646b56081565b60405190815260200161024b565b6102ce610320366004612d07565b610972565b34801561033157600080fd5b506102ce6103403660046129ed565b610b52565b34801561035157600080fd5b50610304610360366004612b6b565b60009081526007602052604090206001015490565b34801561038157600080fd5b506102ce610390366004612b84565b610b84565b3480156103a157600080fd5b506102ce6103b0366004612b84565b610baa565b3480156103c157600080fd5b506103046103d0366004612be1565b610c28565b3480156103e157600080fd5b506102ce610f7a565b3480156103f657600080fd5b506102ce6104053660046129ed565b610ff1565b34801561041657600080fd5b506102ce610425366004612b6b565b61100c565b34801561043657600080fd5b5060065460ff1661023f565b34801561044e57600080fd5b5061046261045d366004612b6b565b611086565b60405161024b9c9b9a99989796959493929190612f2e565b34801561048657600080fd5b50610296610495366004612b6b565b61139e565b6103046104a8366004612b6b565b611415565b3480156104b957600080fd5b506102ce6104c8366004612b6b565b6114c4565b3480156104d957600080fd5b506103046104e836600461299f565b61156a565b3480156104f957600080fd5b506102ce6115f1565b34801561050e57600080fd5b506102ce611625565b34801561052357600080fd5b506008546001600160a01b0316610296565b34801561054157600080fd5b5061023f610550366004612b84565b61169a565b34801561056157600080fd5b50610269610570366004612d07565b6116c5565b34801561058157600080fd5b5061026961183a565b34801561059657600080fd5b50610304600081565b3480156105ab57600080fd5b506102ce6105ba366004612b05565b611849565b3480156105cb57600080fd5b50610304600b5481565b3480156105e157600080fd5b506102ce6105f0366004612a29565b611854565b34801561060157600080fd5b50610304610610366004612b6b565b600c6020526000908152604090205481565b34801561062e57600080fd5b506102ce61063d366004612b6b565b61188c565b34801561064e57600080fd5b5061026961065d366004612b6b565b611979565b34801561066e57600080fd5b506103047f9f2df0fed2c77648de5860a4cc508cd0818c85b8b8a1ab4ceeef8d981c8956a681565b3480156106a257600080fd5b506102ce6106b1366004612b84565b611a19565b3480156106c257600080fd5b5061023f6106d13660046129ba565b6001600160a01b03918216600090815260056020908152604080832093909416825291909152205460ff1690565b34801561070b57600080fd5b506102ce61071a36600461299f565b611a3f565b600061072a82611ad7565b92915050565b60606000805461073f906131d3565b80601f016020809104026020016040519081016040528092919081815260200182805461076b906131d3565b80156107b85780601f1061078d576101008083540402835291602001916107b8565b820191906000526020600020905b81548152906001019060200180831161079b57829003601f168201915b5050505050905090565b6000818152600260205260408120546001600160a01b03166108405760405162461bcd60e51b815260206004820152602c60248201527f4552433732313a20617070726f76656420717565727920666f72206e6f6e657860448201526b34b9ba32b73a103a37b5b2b760a11b60648201526084015b60405180910390fd5b506000908152600460205260409020546001600160a01b031690565b60006108678261139e565b9050806001600160a01b0316836001600160a01b031614156108d55760405162461bcd60e51b815260206004820152602160248201527f4552433732313a20617070726f76616c20746f2063757272656e74206f776e656044820152603960f91b6064820152608401610837565b336001600160a01b03821614806108f157506108f181336106d1565b6109635760405162461bcd60e51b815260206004820152603860248201527f4552433732313a20617070726f76652063616c6c6572206973206e6f74206f7760448201527f6e6572206e6f7220617070726f76656420666f7220616c6c00000000000000006064820152608401610837565b61096d8383611afc565b505050565b808260008211801561099557506000818152600d60205260409020600b01548211155b6109d85760405162461bcd60e51b8152602060048201526014602482015273496e76616c6964206d696e7420616d6f756e742160601b6044820152606401610837565b6000818152600d602052604090206004810154600a909101546109fc90849061312e565b1115610a415760405162461bcd60e51b81526020600482015260146024820152734d617820737570706c792065786365656465642160601b6044820152606401610837565b60065460ff1615610a645760405162461bcd60e51b81526004016108379061302f565b610a7583662386f26fc10000611b6a565b341015610aba5760405162461bcd60e51b8152602060048201526013602482015272496e76616c69642065746820616d6f756e742160681b6044820152606401610837565b6000610ad26064610acc34600a611b6a565b90611b76565b9050610ade3385611b82565b6000858152600d60205260408120600a018054869290610aff90849061312e565b90915550610b0f90503482611bc0565b6000868152600c602052604081208054909190610b2d90849061312e565b9250508190555080600b6000828254610b46919061312e565b90915550505050505050565b610b5d335b82611bcc565b610b795760405162461bcd60e51b8152600401610837906130dd565b61096d838383611cbf565b600082815260076020526040902060010154610ba08133611e66565b61096d8383611eca565b6001600160a01b0381163314610c1a5760405162461bcd60e51b815260206004820152602f60248201527f416363657373436f6e74726f6c3a2063616e206f6e6c792072656e6f756e636560448201526e103937b632b9903337b91039b2b63360891b6064820152608401610837565b610c248282611f50565b5050565b6000610c3660065460ff1690565b15610c535760405162461bcd60e51b81526004016108379061302f565b610cc2604051806101800160405280606081526020016000815260200160006001600160a01b0316815260200160008152602001600081526020016060815260200160608152602001606081526020016000151581526020016060815260200160008152602001600081525090565b608081018e9052604080516020601f8f018190048102820181019092528d8152908e908e9081908401838280828437600092019190915250505090825250604080516020601f8d018190048102820181019092528b8152908c908c908190840183828082843760009201919091525050505060a08201523360408083019190915280516020601f8b01819004810282018101909252898152908a908a908190840183828082843760009201919091525050505060c0820152604080516020601f890181900481028201810190925287815290889088908190840183828082843760009201919091525050505060e0820152604080516020601f870181900481028201810190925285815290869086908190840183828082843760009201829052506101208601949094525050506101608201849052600a548152600d60209081526040909120825180518493610e1c9284929101906128a1565b50602082810151600183015560408301516002830180546001600160a01b0319166001600160a01b03909216919091179055606083015160038301556080830151600483015560a08301518051610e7992600585019201906128a1565b5060c08201518051610e959160068401916020909101906128a1565b5060e08201518051610eb19160078401916020909101906128a1565b5061010082015160088201805460ff19169115159190911790556101208201518051610ee79160098401916020909101906128a1565b50610140820151600a82015561016090910151600b90910155604051610f10908e908e90612def565b604051908190038120600a5490917f825e8a6d1236d1d4535d5b501e1ec2d3d868269f45e6a0c678d3d082b5bcef3990600090a3600a8054906000610f548361320e565b91905055506001600a54610f689190613179565b9e9d5050505050505050505050505050565b610fa47f09b6fca8f5f3ab2900d9586d1d15872611c1bd42b268b973ad886d4f2646b5603361169a565b610fe75760405162461bcd60e51b81526020600482015260146024820152732cb7ba9030b932903737ba1030b71030b236b4b760611b6044820152606401610837565b610fef611fb7565b565b61096d83838360405180602001604052806000815250611854565b61101533610b57565b61107a5760405162461bcd60e51b815260206004820152603060248201527f4552433732314275726e61626c653a2063616c6c6572206973206e6f74206f7760448201526f1b995c881b9bdc88185c1c1c9bdd995960821b6064820152608401610837565b6110838161204a565b50565b600d602052600090815260409020805481906110a1906131d3565b80601f01602080910402602001604051908101604052809291908181526020018280546110cd906131d3565b801561111a5780601f106110ef5761010080835404028352916020019161111a565b820191906000526020600020905b8154815290600101906020018083116110fd57829003601f168201915b5050506001840154600285015460038601546004870154600588018054979894976001600160a01b0390941696509194509291611156906131d3565b80601f0160208091040260200160405190810160405280929190818152602001828054611182906131d3565b80156111cf5780601f106111a4576101008083540402835291602001916111cf565b820191906000526020600020905b8154815290600101906020018083116111b257829003601f168201915b5050505050908060060180546111e4906131d3565b80601f0160208091040260200160405190810160405280929190818152602001828054611210906131d3565b801561125d5780601f106112325761010080835404028352916020019161125d565b820191906000526020600020905b81548152906001019060200180831161124057829003601f168201915b505050505090806007018054611272906131d3565b80601f016020809104026020016040519081016040528092919081815260200182805461129e906131d3565b80156112eb5780601f106112c0576101008083540402835291602001916112eb565b820191906000526020600020905b8154815290600101906020018083116112ce57829003601f168201915b5050506008840154600985018054949560ff90921694919350915061130f906131d3565b80601f016020809104026020016040519081016040528092919081815260200182805461133b906131d3565b80156113885780601f1061135d57610100808354040283529160200191611388565b820191906000526020600020905b81548152906001019060200180831161136b57829003601f168201915b50505050509080600a01549080600b015490508c565b6000818152600260205260408120546001600160a01b03168061072a5760405162461bcd60e51b815260206004820152602960248201527f4552433732313a206f776e657220717565727920666f72206e6f6e657869737460448201526832b73a103a37b5b2b760b91b6064820152608401610837565b600061142360065460ff1690565b156114405760405162461bcd60e51b81526004016108379061302f565b6000828152600d602052604090206002015482906001600160a01b031633146114a35760405162461bcd60e51b81526020600482015260156024820152742cb7ba9030b932903737ba103a34329037bbb732b960591b6044820152606401610837565b506000918252600d6020526040909120600801805460ff1916600117905590565b6008546001600160a01b031633146114ee5760405162461bcd60e51b815260040161083790613059565b60006115026008546001600160a01b031690565b6001600160a01b0316600b5460405160006040518083038185875af1925050503d806000811461154e576040519150601f19603f3d011682016040523d82523d6000602084013e611553565b606091505b505090508061156157600080fd5b50506000600b55565b60006001600160a01b0382166115d55760405162461bcd60e51b815260206004820152602a60248201527f4552433732313a2062616c616e636520717565727920666f7220746865207a65604482015269726f206164647265737360b01b6064820152608401610837565b506001600160a01b031660009081526003602052604090205490565b6008546001600160a01b0316331461161b5760405162461bcd60e51b815260040161083790613059565b610fef60006120f1565b61164f7f09b6fca8f5f3ab2900d9586d1d15872611c1bd42b268b973ad886d4f2646b5603361169a565b6116925760405162461bcd60e51b81526020600482015260146024820152732cb7ba9030b932903737ba1030b71030b236b4b760611b6044820152606401610837565b610fef612143565b60009182526007602090815260408084206001600160a01b0393909316845291905290205460ff1690565b6000828152600260205260409020546060906001600160a01b03166116fc5760405162461bcd60e51b81526004016108379061308e565b6000828152600d602052604090206008015460ff16156117b7576000828152600d602052604090206009018054611732906131d3565b80601f016020809104026020016040519081016040528092919081815260200182805461175e906131d3565b80156117ab5780601f10611780576101008083540402835291602001916117ab565b820191906000526020600020905b81548152906001019060200180831161178e57829003601f168201915b5050505050905061072a565b60006117ce60408051602081019091526000815290565b905060008151116117ee5760405180602001604052806000815250611832565b6000838152600d60209081526040808320878452928190209051611822938593600590910192899260079091019101612e2e565b6040516020818303038152906040525b949350505050565b60606001805461073f906131d3565b610c2433838361219b565b61185e3383611bcc565b61187a5760405162461bcd60e51b8152600401610837906130dd565b6118868484848461226a565b50505050565b6000818152600d602052604090206002015481906001600160a01b031633146118ef5760405162461bcd60e51b81526020600482015260156024820152742cb7ba9030b932903737ba103a34329037bbb732b960591b6044820152606401610837565b6000828152600d6020908152604080832060020154600c9092528083205490516001600160a01b03909216918381818185875af1925050503d8060008114611953576040519150601f19603f3d011682016040523d82523d6000602084013e611958565b606091505b505090508061196657600080fd5b50506000908152600c6020526040812055565b6000818152600260205260409020546060906001600160a01b03166119b05760405162461bcd60e51b81526004016108379061308e565b60006119c760408051602081019091526000815290565b905060008151116119e75760405180602001604052806000815250611a12565b806119f18461229d565b604051602001611a02929190612dff565b6040516020818303038152906040525b9392505050565b600082815260076020526040902060010154611a358133611e66565b61096d8383611f50565b6008546001600160a01b03163314611a695760405162461bcd60e51b815260040161083790613059565b6001600160a01b038116611ace5760405162461bcd60e51b815260206004820152602660248201527f4f776e61626c653a206e6577206f776e657220697320746865207a65726f206160448201526564647265737360d01b6064820152608401610837565b611083816120f1565b60006001600160e01b03198216637965db0b60e01b148061072a575061072a8261239b565b600081815260046020526040902080546001600160a01b0319166001600160a01b0384169081179091558190611b318261139e565b6001600160a01b03167f8c5be1e5ebec7d5bd14f71427d1e84f3dd0314c0f7b2291e5b200ac8c7c3b92560405160405180910390a45050565b6000611a12828461315a565b6000611a128284613146565b60005b8181101561096d5760098054906000611b9d8361320e565b9190505550611bae836009546123eb565b80611bb88161320e565b915050611b85565b6000611a128284613179565b6000818152600260205260408120546001600160a01b0316611c455760405162461bcd60e51b815260206004820152602c60248201527f4552433732313a206f70657261746f7220717565727920666f72206e6f6e657860448201526b34b9ba32b73a103a37b5b2b760a11b6064820152608401610837565b6000611c508361139e565b9050806001600160a01b0316846001600160a01b03161480611c8b5750836001600160a01b0316611c80846107c2565b6001600160a01b0316145b8061183257506001600160a01b0380821660009081526005602090815260408083209388168352929052205460ff16611832565b826001600160a01b0316611cd28261139e565b6001600160a01b031614611d365760405162461bcd60e51b815260206004820152602560248201527f4552433732313a207472616e736665722066726f6d20696e636f72726563742060448201526437bbb732b960d91b6064820152608401610837565b6001600160a01b038216611d985760405162461bcd60e51b8152602060048201526024808201527f4552433732313a207472616e7366657220746f20746865207a65726f206164646044820152637265737360e01b6064820152608401610837565b611da3838383612405565b611dae600082611afc565b6001600160a01b0383166000908152600360205260408120805460019290611dd7908490613179565b90915550506001600160a01b0382166000908152600360205260408120805460019290611e0590849061312e565b909155505060008181526002602052604080822080546001600160a01b0319166001600160a01b0386811691821790925591518493918716917fddf252ad1be2c89b69c2b068fc378daa952ba7f163c4a11628f55a4df523b3ef91a4505050565b611e70828261169a565b610c2457611e88816001600160a01b03166014612410565b611e93836020612410565b604051602001611ea4929190612e69565b60408051601f198184030181529082905262461bcd60e51b825261083791600401612f1b565b611ed4828261169a565b610c245760008281526007602090815260408083206001600160a01b03851684529091529020805460ff19166001179055611f0c3390565b6001600160a01b0316816001600160a01b0316837f2f8788117e7eff1d82e926ec794901d17c78024a50270940304540a733656f0d60405160405180910390a45050565b611f5a828261169a565b15610c245760008281526007602090815260408083206001600160a01b0385168085529252808320805460ff1916905551339285917ff6391f5c32d9c69d2a47ea670b442974b53935d1edc7fd64eb21e047a839171b9190a45050565b60065460ff166120005760405162461bcd60e51b815260206004820152601460248201527314185d5cd8589b194e881b9bdd081c185d5cd95960621b6044820152606401610837565b6006805460ff191690557f5db9ee0a495bf2e6ff9c91a7834c1ba4fdd244a5e8aa4e537bd38aeae4b073aa335b6040516001600160a01b03909116815260200160405180910390a1565b60006120558261139e565b905061206381600084612405565b61206e600083611afc565b6001600160a01b0381166000908152600360205260408120805460019290612097908490613179565b909155505060008281526002602052604080822080546001600160a01b0319169055518391906001600160a01b038416907fddf252ad1be2c89b69c2b068fc378daa952ba7f163c4a11628f55a4df523b3ef908390a45050565b600880546001600160a01b038381166001600160a01b0319831681179093556040519116919082907f8be0079c531659141344cd1fd0a4f28419497f9722a3daafe3b4186f6b6457e090600090a35050565b60065460ff16156121665760405162461bcd60e51b81526004016108379061302f565b6006805460ff191660011790557f62e78cea01bee320cd4e420270b5ea74000d11b0c9f74754ebdbfc544b05a25861202d3390565b816001600160a01b0316836001600160a01b031614156121fd5760405162461bcd60e51b815260206004820152601960248201527f4552433732313a20617070726f766520746f2063616c6c6572000000000000006044820152606401610837565b6001600160a01b03838116600081815260056020908152604080832094871680845294825291829020805460ff191686151590811790915591519182527f17307eab39ab6107e8899845ad3d59bd9653f200f220920489ca2b5937696c31910160405180910390a3505050565b612275848484611cbf565b612281848484846125ac565b6118865760405162461bcd60e51b815260040161083790612fdd565b6060816122c15750506040805180820190915260018152600360fc1b602082015290565b8160005b81156122eb57806122d58161320e565b91506122e49050600a83613146565b91506122c5565b60008167ffffffffffffffff8111156123065761230661327f565b6040519080825280601f01601f191660200182016040528015612330576020820181803683370190505b5090505b841561183257612345600183613179565b9150612352600a86613229565b61235d90603061312e565b60f81b81838151811061237257612372613269565b60200101906001600160f81b031916908160001a905350612394600a86613146565b9450612334565b60006001600160e01b031982166380ac58cd60e01b14806123cc57506001600160e01b03198216635b5e139f60e01b145b8061072a57506301ffc9a760e01b6001600160e01b031983161461072a565b610c248282604051806020016040528060008152506126b9565b61096d8383836126ec565b6060600061241f83600261315a565b61242a90600261312e565b67ffffffffffffffff8111156124425761244261327f565b6040519080825280601f01601f19166020018201604052801561246c576020820181803683370190505b509050600360fc1b8160008151811061248757612487613269565b60200101906001600160f81b031916908160001a905350600f60fb1b816001815181106124b6576124b6613269565b60200101906001600160f81b031916908160001a90535060006124da84600261315a565b6124e590600161312e565b90505b600181111561255d576f181899199a1a9b1b9c1cb0b131b232b360811b85600f166010811061251957612519613269565b1a60f81b82828151811061252f5761252f613269565b60200101906001600160f81b031916908160001a90535060049490941c93612556816131bc565b90506124e8565b508315611a125760405162461bcd60e51b815260206004820181905260248201527f537472696e67733a20686578206c656e67746820696e73756666696369656e746044820152606401610837565b60006001600160a01b0384163b156126ae57604051630a85bd0160e11b81526001600160a01b0385169063150b7a02906125f0903390899088908890600401612ede565b602060405180830381600087803b15801561260a57600080fd5b505af192505050801561263a575060408051601f3d908101601f1916820190925261263791810190612bc4565b60015b612694573d808015612668576040519150601f19603f3d011682016040523d82523d6000602084013e61266d565b606091505b50805161268c5760405162461bcd60e51b815260040161083790612fdd565b805181602001fd5b6001600160e01b031916630a85bd0160e11b149050611832565b506001949350505050565b6126c38383612753565b6126d060008484846125ac565b61096d5760405162461bcd60e51b815260040161083790612fdd565b60065460ff161561096d5760405162461bcd60e51b815260206004820152602b60248201527f4552433732315061757361626c653a20746f6b656e207472616e73666572207760448201526a1a1a5b19481c185d5cd95960aa1b6064820152608401610837565b6001600160a01b0382166127a95760405162461bcd60e51b815260206004820181905260248201527f4552433732313a206d696e7420746f20746865207a65726f20616464726573736044820152606401610837565b6000818152600260205260409020546001600160a01b03161561280e5760405162461bcd60e51b815260206004820152601c60248201527f4552433732313a20746f6b656e20616c7265616479206d696e746564000000006044820152606401610837565b61281a60008383612405565b6001600160a01b038216600090815260036020526040812080546001929061284390849061312e565b909155505060008181526002602052604080822080546001600160a01b0319166001600160a01b03861690811790915590518392907fddf252ad1be2c89b69c2b068fc378daa952ba7f163c4a11628f55a4df523b3ef908290a45050565b8280546128ad906131d3565b90600052602060002090601f0160209004810192826128cf5760008555612915565b82601f106128e857805160ff1916838001178555612915565b82800160010185558215612915579182015b828111156129155782518255916020019190600101906128fa565b50612921929150612925565b5090565b5b808211156129215760008155600101612926565b80356001600160a01b038116811461295157600080fd5b919050565b60008083601f84011261296857600080fd5b50813567ffffffffffffffff81111561298057600080fd5b60208301915083602082850101111561299857600080fd5b9250929050565b6000602082840312156129b157600080fd5b611a128261293a565b600080604083850312156129cd57600080fd5b6129d68361293a565b91506129e46020840161293a565b90509250929050565b600080600060608486031215612a0257600080fd5b612a0b8461293a565b9250612a196020850161293a565b9150604084013590509250925092565b60008060008060808587031215612a3f57600080fd5b612a488561293a565b9350612a566020860161293a565b925060408501359150606085013567ffffffffffffffff80821115612a7a57600080fd5b818701915087601f830112612a8e57600080fd5b813581811115612aa057612aa061327f565b604051601f8201601f19908116603f01168101908382118183101715612ac857612ac861327f565b816040528281528a6020848701011115612ae157600080fd5b82602086016020830137600060208483010152809550505050505092959194509250565b60008060408385031215612b1857600080fd5b612b218361293a565b915060208301358015158114612b3657600080fd5b809150509250929050565b60008060408385031215612b5457600080fd5b612b5d8361293a565b946020939093013593505050565b600060208284031215612b7d57600080fd5b5035919050565b60008060408385031215612b9757600080fd5b823591506129e46020840161293a565b600060208284031215612bb957600080fd5b8135611a1281613295565b600060208284031215612bd657600080fd5b8151611a1281613295565b60008060008060008060008060008060008060e08d8f031215612c0357600080fd5b8c359b5067ffffffffffffffff60208e01351115612c2057600080fd5b612c308e60208f01358f01612956565b909b50995067ffffffffffffffff60408e01351115612c4e57600080fd5b612c5e8e60408f01358f01612956565b909950975067ffffffffffffffff60608e01351115612c7c57600080fd5b612c8c8e60608f01358f01612956565b909750955067ffffffffffffffff60808e01351115612caa57600080fd5b612cba8e60808f01358f01612956565b909550935067ffffffffffffffff60a08e01351115612cd857600080fd5b612ce88e60a08f01358f01612956565b819450809350505060c08d013590509295989b509295989b509295989b565b60008060408385031215612d1a57600080fd5b50508035926020909101359150565b60008151808452612d41816020860160208601613190565b601f01601f19169290920160200192915050565b8054600090600181811c9080831680612d6f57607f831692505b6020808410821415612d9157634e487b7160e01b600052602260045260246000fd5b818015612da55760018114612db657612de3565b60ff19861689528489019650612de3565b60008881526020902060005b86811015612ddb5781548b820152908501908301612dc2565b505084890196505b50505050505092915050565b8183823760009101908152919050565b60008351612e11818460208801613190565b835190830190612e25818360208801613190565b01949350505050565b60008551612e40818460208a01613190565b612e4c81840187612d55565b9050848152612e5e6020820185612d55565b979650505050505050565b7f416363657373436f6e74726f6c3a206163636f756e7420000000000000000000815260008351612ea1816017850160208801613190565b7001034b99036b4b9b9b4b733903937b6329607d1b6017918401918201528351612ed2816028840160208801613190565b01602801949350505050565b6001600160a01b0385811682528416602082015260408101839052608060608201819052600090612f1190830184612d29565b9695505050505050565b602081526000611a126020830184612d29565b61018081526000612f4361018083018f612d29565b602083018e90526001600160a01b038d166040840152606083018c9052608083018b905282810360a0840152612f79818b612d29565b905082810360c0840152612f8d818a612d29565b905082810360e0840152612fa18189612d29565b8715156101008501529050828103610120840152612fbf8187612d29565b610140840195909552505061016001529a9950505050505050505050565b60208082526032908201527f4552433732313a207472616e7366657220746f206e6f6e20455243373231526560408201527131b2b4bb32b91034b6b83632b6b2b73a32b960711b606082015260800190565b60208082526010908201526f14185d5cd8589b194e881c185d5cd95960821b604082015260600190565b6020808252818101527f4f776e61626c653a2063616c6c6572206973206e6f7420746865206f776e6572604082015260600190565b6020808252602f908201527f4552433732314d657461646174613a2055524920717565727920666f72206e6f60408201526e3732bc34b9ba32b73a103a37b5b2b760891b606082015260800190565b60208082526031908201527f4552433732313a207472616e736665722063616c6c6572206973206e6f74206f6040820152701ddb995c881b9bdc88185c1c1c9bdd9959607a1b606082015260800190565b600082198211156131415761314161323d565b500190565b60008261315557613155613253565b500490565b60008160001904831182151516156131745761317461323d565b500290565b60008282101561318b5761318b61323d565b500390565b60005b838110156131ab578181015183820152602001613193565b838111156118865750506000910152565b6000816131cb576131cb61323d565b506000190190565b600181811c908216806131e757607f821691505b6020821081141561320857634e487b7160e01b600052602260045260246000fd5b50919050565b60006000198214156132225761322261323d565b5060010190565b60008261323857613238613253565b500690565b634e487b7160e01b600052601160045260246000fd5b634e487b7160e01b600052601260045260246000fd5b634e487b7160e01b600052603260045260246000fd5b634e487b7160e01b600052604160045260246000fd5b6001600160e01b03198116811461108357600080fdfea26469706673582212203f762b27abbd21eb9227d86fda8ef2150f60a30f26bb7225e72c06a6f836050264736f6c63430008070033",
  "devdoc": {
    "kind": "dev",
    "methods": {
      "approve(address,uint256)": {
        "details": "See {IERC721-approve}."
      },
      "balanceOf(address)": {
        "details": "See {IERC721-balanceOf}."
      },
      "burn(uint256)": {
        "details": "Burns `tokenId`. See {ERC721-_burn}. Requirements: - The caller must own `tokenId` or be an approved operator."
      },
      "getApproved(uint256)": {
        "details": "See {IERC721-getApproved}."
      },
      "getRoleAdmin(bytes32)": {
        "details": "Returns the admin role that controls `role`. See {grantRole} and {revokeRole}. To change a role's admin, use {_setRoleAdmin}."
      },
      "grantRole(bytes32,address)": {
        "details": "Grants `role` to `account`. If `account` had not been already granted `role`, emits a {RoleGranted} event. Requirements: - the caller must have ``role``'s admin role."
      },
      "hasRole(bytes32,address)": {
        "details": "Returns `true` if `account` has been granted `role`."
      },
      "isApprovedForAll(address,address)": {
        "details": "See {IERC721-isApprovedForAll}."
      },
      "name()": {
        "details": "See {IERC721Metadata-name}."
      },
      "owner()": {
        "details": "Returns the address of the current owner."
      },
      "ownerOf(uint256)": {
        "details": "See {IERC721-ownerOf}."
      },
      "paused()": {
        "details": "Returns true if the contract is paused, and false otherwise."
      },
      "renounceOwnership()": {
        "details": "Leaves the contract without owner. It will not be possible to call `onlyOwner` functions anymore. Can only be called by the current owner. NOTE: Renouncing ownership will leave the contract without an owner, thereby removing any functionality that is only available to the owner."
      },
      "renounceRole(bytes32,address)": {
        "details": "Revokes `role` from the calling account. Roles are often managed via {grantRole} and {revokeRole}: this function's purpose is to provide a mechanism for accounts to lose their privileges if they are compromised (such as when a trusted device is misplaced). If the calling account had been revoked `role`, emits a {RoleRevoked} event. Requirements: - the caller must be `account`."
      },
      "revokeRole(bytes32,address)": {
        "details": "Revokes `role` from `account`. If `account` had been granted `role`, emits a {RoleRevoked} event. Requirements: - the caller must have ``role``'s admin role."
      },
      "safeTransferFrom(address,address,uint256)": {
        "details": "See {IERC721-safeTransferFrom}."
      },
      "safeTransferFrom(address,address,uint256,bytes)": {
        "details": "See {IERC721-safeTransferFrom}."
      },
      "setApprovalForAll(address,bool)": {
        "details": "See {IERC721-setApprovalForAll}."
      },
      "symbol()": {
        "details": "See {IERC721Metadata-symbol}."
      },
      "tokenURI(uint256)": {
        "details": "See {IERC721Metadata-tokenURI}."
      },
      "transferFrom(address,address,uint256)": {
        "details": "See {IERC721-transferFrom}."
      },
      "transferOwnership(address)": {
        "details": "Transfers ownership of the contract to a new account (`newOwner`). Can only be called by the current owner."
      }
    },
    "version": 1
  },
  "userdoc": {
    "kind": "user",
    "methods": {},
    "version": 1
  },
  "storageLayout": {
    "storage": [
      {
        "astId": 1295,
        "contract": "contracts/Nft/DropNfts.sol:NftDrop",
        "label": "_name",
        "offset": 0,
        "slot": "0",
        "type": "t_string_storage"
      },
      {
        "astId": 1297,
        "contract": "contracts/Nft/DropNfts.sol:NftDrop",
        "label": "_symbol",
        "offset": 0,
        "slot": "1",
        "type": "t_string_storage"
      },
      {
        "astId": 1301,
        "contract": "contracts/Nft/DropNfts.sol:NftDrop",
        "label": "_owners",
        "offset": 0,
        "slot": "2",
        "type": "t_mapping(t_uint256,t_address)"
      },
      {
        "astId": 1305,
        "contract": "contracts/Nft/DropNfts.sol:NftDrop",
        "label": "_balances",
        "offset": 0,
        "slot": "3",
        "type": "t_mapping(t_address,t_uint256)"
      },
      {
        "astId": 1309,
        "contract": "contracts/Nft/DropNfts.sol:NftDrop",
        "label": "_tokenApprovals",
        "offset": 0,
        "slot": "4",
        "type": "t_mapping(t_uint256,t_address)"
      },
      {
        "astId": 1315,
        "contract": "contracts/Nft/DropNfts.sol:NftDrop",
        "label": "_operatorApprovals",
        "offset": 0,
        "slot": "5",
        "type": "t_mapping(t_address,t_mapping(t_address,t_bool))"
      },
      {
        "astId": 504,
        "contract": "contracts/Nft/DropNfts.sol:NftDrop",
        "label": "_paused",
        "offset": 0,
        "slot": "6",
        "type": "t_bool"
      },
      {
        "astId": 24,
        "contract": "contracts/Nft/DropNfts.sol:NftDrop",
        "label": "_roles",
        "offset": 0,
        "slot": "7",
        "type": "t_mapping(t_bytes32,t_struct(RoleData)19_storage)"
      },
      {
        "astId": 389,
        "contract": "contracts/Nft/DropNfts.sol:NftDrop",
        "label": "_owner",
        "offset": 0,
        "slot": "8",
        "type": "t_address"
      },
      {
        "astId": 3678,
        "contract": "contracts/Nft/DropNfts.sol:NftDrop",
        "label": "totalNft",
        "offset": 0,
        "slot": "9",
        "type": "t_uint256"
      },
      {
        "astId": 3242,
        "contract": "contracts/Nft/DropNfts.sol:NftDrop",
        "label": "totalDrops",
        "offset": 0,
        "slot": "10",
        "type": "t_uint256"
      },
      {
        "astId": 3250,
        "contract": "contracts/Nft/DropNfts.sol:NftDrop",
        "label": "balance",
        "offset": 0,
        "slot": "11",
        "type": "t_uint256"
      },
      {
        "astId": 3279,
        "contract": "contracts/Nft/DropNfts.sol:NftDrop",
        "label": "dropsBalance",
        "offset": 0,
        "slot": "12",
        "type": "t_mapping(t_uint256,t_uint256)"
      },
      {
        "astId": 3284,
        "contract": "contracts/Nft/DropNfts.sol:NftDrop",
        "label": "drops",
        "offset": 0,
        "slot": "13",
        "type": "t_mapping(t_uint256,t_struct(Drop)3275_storage)"
      }
    ],
    "types": {
      "t_address": {
        "encoding": "inplace",
        "label": "address",
        "numberOfBytes": "20"
      },
      "t_bool": {
        "encoding": "inplace",
        "label": "bool",
        "numberOfBytes": "1"
      },
      "t_bytes32": {
        "encoding": "inplace",
        "label": "bytes32",
        "numberOfBytes": "32"
      },
      "t_mapping(t_address,t_bool)": {
        "encoding": "mapping",
        "key": "t_address",
        "label": "mapping(address => bool)",
        "numberOfBytes": "32",
        "value": "t_bool"
      },
      "t_mapping(t_address,t_mapping(t_address,t_bool))": {
        "encoding": "mapping",
        "key": "t_address",
        "label": "mapping(address => mapping(address => bool))",
        "numberOfBytes": "32",
        "value": "t_mapping(t_address,t_bool)"
      },
      "t_mapping(t_address,t_uint256)": {
        "encoding": "mapping",
        "key": "t_address",
        "label": "mapping(address => uint256)",
        "numberOfBytes": "32",
        "value": "t_uint256"
      },
      "t_mapping(t_bytes32,t_struct(RoleData)19_storage)": {
        "encoding": "mapping",
        "key": "t_bytes32",
        "label": "mapping(bytes32 => struct AccessControl.RoleData)",
        "numberOfBytes": "32",
        "value": "t_struct(RoleData)19_storage"
      },
      "t_mapping(t_uint256,t_address)": {
        "encoding": "mapping",
        "key": "t_uint256",
        "label": "mapping(uint256 => address)",
        "numberOfBytes": "32",
        "value": "t_address"
      },
      "t_mapping(t_uint256,t_struct(Drop)3275_storage)": {
        "encoding": "mapping",
        "key": "t_uint256",
        "label": "mapping(uint256 => struct NftDrop.Drop)",
        "numberOfBytes": "32",
        "value": "t_struct(Drop)3275_storage"
      },
      "t_mapping(t_uint256,t_uint256)": {
        "encoding": "mapping",
        "key": "t_uint256",
        "label": "mapping(uint256 => uint256)",
        "numberOfBytes": "32",
        "value": "t_uint256"
      },
      "t_string_storage": {
        "encoding": "bytes",
        "label": "string",
        "numberOfBytes": "32"
      },
      "t_struct(Drop)3275_storage": {
        "encoding": "inplace",
        "label": "struct NftDrop.Drop",
        "members": [
          {
            "astId": 3252,
            "contract": "contracts/Nft/DropNfts.sol:NftDrop",
            "label": "name",
            "offset": 0,
            "slot": "0",
            "type": "t_string_storage"
          },
          {
            "astId": 3254,
            "contract": "contracts/Nft/DropNfts.sol:NftDrop",
            "label": "hash",
            "offset": 0,
            "slot": "1",
            "type": "t_uint256"
          },
          {
            "astId": 3256,
            "contract": "contracts/Nft/DropNfts.sol:NftDrop",
            "label": "owner",
            "offset": 0,
            "slot": "2",
            "type": "t_address"
          },
          {
            "astId": 3258,
            "contract": "contracts/Nft/DropNfts.sol:NftDrop",
            "label": "nftId",
            "offset": 0,
            "slot": "3",
            "type": "t_uint256"
          },
          {
            "astId": 3260,
            "contract": "contracts/Nft/DropNfts.sol:NftDrop",
            "label": "maxSupply",
            "offset": 0,
            "slot": "4",
            "type": "t_uint256"
          },
          {
            "astId": 3262,
            "contract": "contracts/Nft/DropNfts.sol:NftDrop",
            "label": "cid",
            "offset": 0,
            "slot": "5",
            "type": "t_string_storage"
          },
          {
            "astId": 3264,
            "contract": "contracts/Nft/DropNfts.sol:NftDrop",
            "label": "prefix",
            "offset": 0,
            "slot": "6",
            "type": "t_string_storage"
          },
          {
            "astId": 3266,
            "contract": "contracts/Nft/DropNfts.sol:NftDrop",
            "label": "sufix",
            "offset": 0,
            "slot": "7",
            "type": "t_string_storage"
          },
          {
            "astId": 3268,
            "contract": "contracts/Nft/DropNfts.sol:NftDrop",
            "label": "revealed",
            "offset": 0,
            "slot": "8",
            "type": "t_bool"
          },
          {
            "astId": 3270,
            "contract": "contracts/Nft/DropNfts.sol:NftDrop",
            "label": "hiddenURI",
            "offset": 0,
            "slot": "9",
            "type": "t_string_storage"
          },
          {
            "astId": 3272,
            "contract": "contracts/Nft/DropNfts.sol:NftDrop",
            "label": "totalNft",
            "offset": 0,
            "slot": "10",
            "type": "t_uint256"
          },
          {
            "astId": 3274,
            "contract": "contracts/Nft/DropNfts.sol:NftDrop",
            "label": "maxMintPerTx",
            "offset": 0,
            "slot": "11",
            "type": "t_uint256"
          }
        ],
        "numberOfBytes": "384"
      },
      "t_struct(RoleData)19_storage": {
        "encoding": "inplace",
        "label": "struct AccessControl.RoleData",
        "members": [
          {
            "astId": 16,
            "contract": "contracts/Nft/DropNfts.sol:NftDrop",
            "label": "members",
            "offset": 0,
            "slot": "0",
            "type": "t_mapping(t_address,t_bool)"
          },
          {
            "astId": 18,
            "contract": "contracts/Nft/DropNfts.sol:NftDrop",
            "label": "adminRole",
            "offset": 0,
            "slot": "1",
            "type": "t_bytes32"
          }
        ],
        "numberOfBytes": "64"
      },
      "t_uint256": {
        "encoding": "inplace",
        "label": "uint256",
        "numberOfBytes": "32"
      }
    }
  }
}