{
  "address": "0xDa56396b97217b2cf24F17E9e1Bd1E5FfBC84397",
  "abi": [
    {
      "inputs": [
        {
          "internalType": "contract Token",
          "name": "_tokenContract",
          "type": "address"
        },
        {
          "internalType": "uint256",
          "name": "_tokenPrice",
          "type": "uint256"
        }
      ],
      "stateMutability": "nonpayable",
      "type": "constructor"
    },
    {
      "anonymous": false,
      "inputs": [
        {
          "indexed": true,
          "internalType": "address",
          "name": "previousOwner",
          "type": "address"
        },
        {
          "indexed": true,
          "internalType": "address",
          "name": "newOwner",
          "type": "address"
        }
      ],
      "name": "OwnershipTransferred",
      "type": "event"
    },
    {
      "anonymous": false,
      "inputs": [
        {
          "indexed": true,
          "internalType": "address",
          "name": "buyer",
          "type": "address"
        },
        {
          "indexed": true,
          "internalType": "uint256",
          "name": "numberOfTokens",
          "type": "uint256"
        }
      ],
      "name": "Sell",
      "type": "event"
    },
    {
      "inputs": [
        {
          "internalType": "uint256",
          "name": "_numberOfTokens",
          "type": "uint256"
        }
      ],
      "name": "buyTokens",
      "outputs": [],
      "stateMutability": "payable",
      "type": "function"
    },
    {
      "inputs": [],
      "name": "endSale",
      "outputs": [],
      "stateMutability": "nonpayable",
      "type": "function"
    },
    {
      "inputs": [],
      "name": "owner",
      "outputs": [
        {
          "internalType": "address",
          "name": "",
          "type": "address"
        }
      ],
      "stateMutability": "view",
      "type": "function"
    },
    {
      "inputs": [],
      "name": "renounceOwnership",
      "outputs": [],
      "stateMutability": "nonpayable",
      "type": "function"
    },
    {
      "inputs": [],
      "name": "tokenContract",
      "outputs": [
        {
          "internalType": "contract Token",
          "name": "",
          "type": "address"
        }
      ],
      "stateMutability": "view",
      "type": "function"
    },
    {
      "inputs": [],
      "name": "tokenPrice",
      "outputs": [
        {
          "internalType": "uint256",
          "name": "",
          "type": "uint256"
        }
      ],
      "stateMutability": "view",
      "type": "function"
    },
    {
      "inputs": [],
      "name": "tokensSold",
      "outputs": [
        {
          "internalType": "uint256",
          "name": "",
          "type": "uint256"
        }
      ],
      "stateMutability": "view",
      "type": "function"
    },
    {
      "inputs": [
        {
          "internalType": "address",
          "name": "newOwner",
          "type": "address"
        }
      ],
      "name": "transferOwnership",
      "outputs": [],
      "stateMutability": "nonpayable",
      "type": "function"
    }
  ],
  "transactionHash": "0x1466ab0ad27ce5b8a646e6b19a43a9f2627b35fcd2570e66da9a48ad9835a234",
  "args": [
    "0x4133791602fb0EcFe1ABC1be84bfAAA2b401759C",
    "1000000000000000"
  ],
  "numDeployments": 2,
  "solcInputHash": "578dc04433f5afd3cbcdd3d323746394",
  "bytecode": "0x608060405234801561001057600080fd5b5060405161083838038061083883398101604081905261002f916100b1565b61003833610061565b600180546001600160a01b0319166001600160a01b0393909316929092179091556002556100eb565b600080546001600160a01b038381166001600160a01b0319831681178455604051919092169283917f8be0079c531659141344cd1fd0a4f28419497f9722a3daafe3b4186f6b6457e09190a35050565b600080604083850312156100c457600080fd5b82516001600160a01b03811681146100db57600080fd5b6020939093015192949293505050565b61073e806100fa6000396000f3fe60806040526004361061007b5760003560e01c8063715018a61161004e578063715018a61461010b5780637ff9b596146101205780638da5cb5b14610136578063f2fde38b1461015457600080fd5b80633610724e14610080578063380d831b14610095578063518ab2a8146100aa57806355a373d6146100d3575b600080fd5b61009361008e366004610654565b610174565b005b3480156100a157600080fd5b50610093610378565b3480156100b657600080fd5b506100c060035481565b6040519081526020015b60405180910390f35b3480156100df57600080fd5b506001546100f3906001600160a01b031681565b6040516001600160a01b0390911681526020016100ca565b34801561011757600080fd5b506100936104d5565b34801561012c57600080fd5b506100c060025481565b34801561014257600080fd5b506000546001600160a01b03166100f3565b34801561016057600080fd5b5061009361016f366004610609565b61050b565b6002546101829082906105a6565b34146101c85760405162461bcd60e51b815260206004820152601060248201526f1ddc9bdb99c8195d1a08185b5bdd5b9d60821b60448201526064015b60405180910390fd5b6001546040516370a0823160e01b815230600482015282916001600160a01b0316906370a082319060240160206040518083038186803b15801561020b57600080fd5b505afa15801561021f573d6000803e3d6000fd5b505050506040513d601f19601f82011682018060405250810190610243919061066d565b10156102a45760405162461bcd60e51b815260206004820152602a60248201527f63616e6e6f74207075726368617365206d6f726520746f6b656e73207468616e604482015269206176616c6961626c6560b01b60648201526084016101bf565b60015460405163a9059cbb60e01b8152336004820152602481018390526001600160a01b039091169063a9059cbb90604401602060405180830381600087803b1580156102f057600080fd5b505af1158015610304573d6000803e3d6000fd5b505050506040513d601f19601f820116820180604052508101906103289190610632565b61033157600080fd5b806003600082825461034391906106bb565b9091555050604051819033907f5e5e995ce3133561afceaa51a9a154d5db228cd7525d34df5185582c18d3df0990600090a350565b6000546001600160a01b031633146103a25760405162461bcd60e51b81526004016101bf90610686565b6001546001600160a01b031663a9059cbb6103c56000546001600160a01b031690565b6001546040516370a0823160e01b81523060048201526001600160a01b03909116906370a082319060240160206040518083038186803b15801561040857600080fd5b505afa15801561041c573d6000803e3d6000fd5b505050506040513d601f19601f82011682018060405250810190610440919061066d565b6040516001600160e01b031960e085901b1681526001600160a01b0390921660048301526024820152604401602060405180830381600087803b15801561048657600080fd5b505af115801561049a573d6000803e3d6000fd5b505050506040513d601f19601f820116820180604052508101906104be9190610632565b6104c757600080fd5b6000546001600160a01b0316ff5b6000546001600160a01b031633146104ff5760405162461bcd60e51b81526004016101bf90610686565b61050960006105b9565b565b6000546001600160a01b031633146105355760405162461bcd60e51b81526004016101bf90610686565b6001600160a01b03811661059a5760405162461bcd60e51b815260206004820152602660248201527f4f776e61626c653a206e6577206f776e657220697320746865207a65726f206160448201526564647265737360d01b60648201526084016101bf565b6105a3816105b9565b50565b60006105b282846106d3565b9392505050565b600080546001600160a01b038381166001600160a01b0319831681178455604051919092169283917f8be0079c531659141344cd1fd0a4f28419497f9722a3daafe3b4186f6b6457e09190a35050565b60006020828403121561061b57600080fd5b81356001600160a01b03811681146105b257600080fd5b60006020828403121561064457600080fd5b815180151581146105b257600080fd5b60006020828403121561066657600080fd5b5035919050565b60006020828403121561067f57600080fd5b5051919050565b6020808252818101527f4f776e61626c653a2063616c6c6572206973206e6f7420746865206f776e6572604082015260600190565b600082198211156106ce576106ce6106f2565b500190565b60008160001904831182151516156106ed576106ed6106f2565b500290565b634e487b7160e01b600052601160045260246000fdfea2646970667358221220ff9d54eda9d9c6513b239b5776b4b40a34f0a7b792c987e0d083653a8ef8afb264736f6c63430008070033",
  "devdoc": {
    "kind": "dev",
    "methods": {
      "owner()": {
        "details": "Returns the address of the current owner."
      },
      "renounceOwnership()": {
        "details": "Leaves the contract without owner. It will not be possible to call `onlyOwner` functions anymore. Can only be called by the current owner. NOTE: Renouncing ownership will leave the contract without an owner, thereby removing any functionality that is only available to the owner."
      },
      "transferOwnership(address)": {
        "details": "Transfers ownership of the contract to a new account (`newOwner`). Can only be called by the current owner."
      }
    },
    "version": 1
  },
  "userdoc": {
    "kind": "user",
    "methods": {},
    "version": 1
  },
  "storageLayout": {
    "storage": [
      {
        "astId": 389,
        "contract": "contracts/TokenSale.sol:TokenSale",
        "label": "_owner",
        "offset": 0,
        "slot": "0",
        "type": "t_address"
      },
      {
        "astId": 3875,
        "contract": "contracts/TokenSale.sol:TokenSale",
        "label": "tokenContract",
        "offset": 0,
        "slot": "1",
        "type": "t_contract(Token)3862"
      },
      {
        "astId": 3877,
        "contract": "contracts/TokenSale.sol:TokenSale",
        "label": "tokenPrice",
        "offset": 0,
        "slot": "2",
        "type": "t_uint256"
      },
      {
        "astId": 3879,
        "contract": "contracts/TokenSale.sol:TokenSale",
        "label": "tokensSold",
        "offset": 0,
        "slot": "3",
        "type": "t_uint256"
      }
    ],
    "types": {
      "t_address": {
        "encoding": "inplace",
        "label": "address",
        "numberOfBytes": "20"
      },
      "t_contract(Token)3862": {
        "encoding": "inplace",
        "label": "contract Token",
        "numberOfBytes": "20"
      },
      "t_uint256": {
        "encoding": "inplace",
        "label": "uint256",
        "numberOfBytes": "32"
      }
    }
  }
}